:020000040800F2
:1000000070060020450200084D0200084F0200085B
:1000100051020008530200085502000800000000C9
:10002000000000000000000000000000570200086F
:1000300059020008000000005B0200085D02000891
:100040005F0200085F0200085F0200085F0200080C
:100050005F0200085F0200085F0200085F020008FC
:100060005F0200085F0200085F0200085F020008EC
:100070005F0200085F0200085F0200085F020008DC
:100080005F0200085F0200085F0200080000000035
:100090000000000000000000000000005F020008F7
:1000A0005F0200085F0200085F0200085F020008AC
:1000B0005F0200085F0200085F0200085F0200089C
:1000C0005F0200085F0200085F0200085F0200088C
:1000D0005F0200085F0200085F02000800000000E5
:1000E0005F0200085F0200085F02000800000000D5
:1000F0000000000000000000000000005F02000897
:10010000000000005F0200085F0200085F020008B4
:1001100000000000000000000000000000000000DF
:100120005F0200085F0200085F0200085F0200082B
:100130005F02000800000000000000000000000056
:100140000000000000000000000000005F02000846
:100150005F0200085F0200085F0200085F020008FB
:100160005F0200085F0200080000000000000000BD
:10017000000000000000000000000000000000007F
:10018000000000005F020008000000000000000006
:100190005F02000800F002F800F044F814A696E8A8
:1001A000000CB244B344DA4501D100F03BF8BAE8A0
:1001B0000F000FA696E83000A5EB040504EB060738
:1001C000AAEB0704A7F101074FEA15154FEA34140B
:1001D000A4F10104AC4201D300F024F813F0010FA4
:1001E00018BFFB1A43F0010300F001F8DBE71847E2
:1001F00088030000980300007047000000230024DB
:1002000000250026103A28BF78C1FBD8520728BF26
:1002100030C148BF0B6070471FB500F09FF91FBD8C
:1002200010B510BD00F031F81146FFF7F5FF00F0F2
:100230004FF900F04FF803B4FFF7F2FF03BC00F0F2
:1002400057F800000948804709480047FEE7FEE7E5
:10025000FEE7FEE7FEE7FEE7FEE7FEE7FEE7FEE776
:1002600004480549054A064B70470000B1040008E0
:100270009501000870000020700600207002002028
:1002800070020020704770477047754600F02CF8E8
:10029000AE4605006946534620F00700854618B073
:1002A00020B5FFF7DDFFBDE820404FF000064FF01E
:1002B00000074FF000084FF0000BAC46ACE8C00957
:1002C000ACE8C009ACE8C009ACE8C00921F00701FE
:1002D0008D46704710B50446AFF300802046BDE858
:1002E0001040FFF7A8BF0000004870470000002042
:1002F00001491820ABBEFEE726000200704700004F
:1003000085B004900391002002900190009002902B
:10031000FFE702980F286CD8FFE702990120884078
:100320000190039800680199084000900098019995
:10033000884259D1FFE702984100032000FA01F2F8
:10034000049908689043086003980079029949006D
:1003500000FA01F2049908681043086003980079D4
:10036000012805D0FFE703980079022827D1FFE78D
:1003700002984100032000FA01F204998868904332
:100380008860039840790299490000FA01F20499C3
:10039000886810438860BDF80810012000FA01F257
:1003A000049948689043486003988079BDF8081024
:1003B000884082B20499486810434860FFE7BDF85E
:1003C00008004100032000FA01F20499C868904334
:1003D000C8600398C0790299490000FA01F20499B3
:1003E000C8681043C860FFE7FFE702980130029039
:1003F0008FE705B07047000082B00190ADF80210A1
:1004000000208DF8010001980069BDF80210084233
:1004100004D0FFE701208DF8010003E000208DF8F3
:100420000100FFE79DF8010002B0704782B0019023
:10043000ADF80210BDF802000199488302B0704780
:1004400082B00190ADF80210BDF802000199088356
:1004500002B0704781B0009000994FF6FF700860BD
:1004600000990020087100994871009988710099DD
:10047000C87101B07047000082B001908DF8031080
:100480009DF8030048B1FFE7019A43F63001C4F23A
:10049000020108681043086008E0019A43F6300141
:1004A000C4F20201086890430860FFE702B0704799
:1004B0004EF68851CEF20001086840F470000860E2
:1004C0004EF60851CEF200014FF000600860704710
:1004D00080B586B000200190059003200121039192
:1004E000FFF7CAFF40F26800C2F200000290FFF777
:1004F000B1FF0198029908220A60087140F2004099
:10050000C4F20200FFF7FCFE40F26000C2F20000FD
:100510000490FFF79FFF0398049920220A60087156
:100520000020C4F20200FFF7EBFEFFE740F20040BC
:10053000C4F202000821FFF75FFF38B9FFE700208F
:10054000C4F202002021FFF77BFF06E00020C4F286
:1005500002002021FFF76AFFFFE7E7E7F1EE100A4C
:100560004FF6FF71C0F2C03120EA010040F0407048
:10057000E1EE100A70470000880500080000002026
:0805800070060000FC010008F8
:0400000508000245A8
:00000001FF
